:020000040800F2
:10000000080700202902000823150008150600082B
:100010001F15000839050008D32000080000000063
:10002000000000000000000000000000351800087B
:100030003D05000800000000B11500084D1900083A
:10004000430200084302000843020008430200087C
:10005000430200084302000843020008430200086C
:10006000430200084302000843020008430200085C
:10007000430200084302000843020008430200084C
:10008000430200084302000843020008430200083C
:10009000430200084302000843020008430200082C
:1000A000430200084302000843020008430200081C
:1000B000430200084302000843020008430200080C
:1000C00043020008430200084302000843020008FC
:1000D00043020008811E0008430200084302000892
:1000E00043020008430200084302000843020008DC
:1000F00043020008430200084302000843020008CC
:1001000043020008430200084302000843020008BB
:10011000430200084302000843020008B91900081E
:10012000430200084302000843020008430200089B
:10013000430200084302000843020008430200088B
:10014000430200084302000843020008430200087B
:10015000430200084302000843020008430200086B
:10016000430200084302000843020008430200085B
:10017000430200084302000843020008430200084B
:10018000430200084302000800F002F800F03CF8C7
:100190000AA090E8000C82448344AAF10107DA45E2
:1001A00001D100F031F8AFF2090EBAE80F0013F0F8
:1001B000010F18BFFB1A43F0010318472822000063
:1001C00048220000103A24BF78C878C1FAD85207F4
:1001D00024BF30C830C144BF04680C6070470000C1
:1001E0000023002400250026103A28BF78C1FBD840
:1001F000520728BF30C148BF0B6070471FB502F0DF
:10020000EBF81FBD10B510BD00F07AF81146FFF7EE
:10021000F5FF01F0D5FF00F098F803B4FFF7F2FF07
:1002200003BC01F062FF000009488047094800470D
:10023000FEE7FEE7FEE7FEE7FEE7FEE7FEE7FEE796
:10024000FEE7FEE704480549054A064B70470000F3
:100250005119000889010008080100200807002042
:1002600008030020080300204FF000020429C0F01A
:10027000128010F0030C00F01B80CCF1040CBCF1D8
:10028000020F18BF00F8012BA8BF20F8022BA1EB2A
:100290000C0100F00DB85FEAC17C24BF00F8012B0F
:1002A00000F8012B48BF00F8012B70474FF0000207
:1002B00000B5134694469646203922BFA0E80C505C
:1002C000A0E80C50B1F12001BFF4F7AF090728BF37
:1002D000A0E80C5048BF0CC05DF804EB890028BFB3
:1002E00040F8042B08BF704748BF20F8022B11F0DC
:1002F000804F18BF00F8012B704770477047704758
:10030000754600F029F8AE4605006946534620F0D0
:100310000700854618B020B5FFF794FFBDE82040E0
:100320004FF000064FF000074FF000084FF0000BB1
:1003300021F00701AC46ACE8C009ACE8C009ACE864
:10034000C009ACE8C0098D4670470446AFF3008091
:100350002046FFF762FF000000487047A40000201D
:1003600021B1826842F00102826003E0826822F0DB
:1003700001028260704700000021084A1168084AA3
:100380001140D0E900231A4383681A43C3681A4313
:100390001143044AC2F804137047000004230140CB
:1003A000E030FCFF002001400146C86C80B270477D
:1003B0000246002013680B400BB1012000E0002032
:1003C0007047000030B50246002000235068104CF2
:1003D00020400D790C6844EA052420435060906861
:1003E0000C4C2040D1E903542C438D682C434D79AB
:1003F00044EA450420439060D06A20F470000C7DEC
:10040000641EE4B2234340EA0350D06230BD0000D2
:10041000FFFEFFFCFDF7FFC0F0B504460D460020CF
:100420000021092D11DDE068A5F10A0606EB46075B
:10043000072606FA07F18843A5F10A0606EB4606E9
:1004400003FA06F10843E0600CE0206905EB45077C
:10045000072606FA07F1884305EB450603FA06F17D
:1004600008432061072A0FDA606B561E06EB8607E9
:100470001F2606FA07F18843561E06EB860605FA84
:1004800006F10843606322E00D2A0FDA206BD61FC5
:1004900006EB86071F2606FA07F18843D61F06EBF0
:1004A000860605FA06F10843206310E0E06AA2F12F
:1004B0000D0606EB86071F2606FA07F18843A2F110
:1004C0000D0606EB860605FA06F10843E062F0BD6C
:1004D000816841F080418160704700007FB505462A
:1004E0000C460121202001F075F80295ADF804407A
:1004F0000020ADF80600ADF80C0001A90D4801F090
:100500007DFC012211460B4801F01AFB012109482C
:1005100001F0C9FA37208DF8000001208DF80100A4
:1005200003208DF8020001208DF80300684600F0DA
:10053000F9FF7FBD0014004000BFFEE77047F0B533
:100540000A4600210023002400BF3DE0012505FAF2
:1005500001F3156805EA03049C4234D105684F0095
:100560000326BE40B543056015794E00B5400668C8
:10057000354305601579012D02D01579022D16D16C
:1005800085684F000326BE40B543856055794E000F
:10059000B540866835438560456801268E40B54381
:1005A0004560456896798E40B6B235434560C5686A
:1005B0004F000326BE40B543C560D5794E00B54017
:1005C000C6683543C560491C1029BFD3F0BDF0B5DE
:1005D000002300244D07ED0E02FA05F3CE1000F1C2
:1005E000200555F826504E07F70E0F26BE40B5439E
:1005F000CF1000F1200646F82750CE1000F120055C
:1006000055F8265045EA0304CE1000F1200545F8C0
:100610002640F0BD00BFFEE730B58FB004460D4662
:100620000121022000F0E6FF0121042000F0C2FFBA
:10063000032206214948FFF7CAFF03220721474842
:10064000FFF7C5FF032208214448FFF7C0FF03223C
:1006500009214248FFF7BBFF4FF470700D90022054
:100660008DF8380003208DF8390000208DF83A000D
:1006700001208DF83B000DA93848FFF760FFA8B2B4
:10068000ADF828000020ADF82A000B944FF48070DC
:10069000ADF830000AA9324801F0B0FB6020ADF897
:1006A00014000120ADF81600002007900220ADF8DC
:1006B0002000C001ADF824000420ADF81800082087
:1006C000ADF822000020ADF8260005A9244801F06D
:1006D00041FA05A9224801F085FA05A9204801F050
:1006E000E1FA05A91E4801F037FB4FF40060ADF8B0
:1006F00004004010ADF806008010ADF8080094200A
:10070000ADF80A000020ADF80C00ADF80E004FF473
:100710008040ADF8100001A9114801F0B1F908219D
:100720000F4801F055FA08210D4801F0ADFA0821F3
:100730000B4801F007FB0821094801F049FB0121A2
:10074000074801F091F90121054801F0ACF90121B8
:10075000034801F0B4F90FB030BD000000080240BA
:10076000000401404848006828B1484800684849EA
:10077000C1F8AC0202E0002044490860DFED450A00
:10078000B4EEE00AF1EE10FA2AD84348006808B93E
:10079000012000E00020404908604048D0F8840271
:1007A00008B9012000E000203B49091D08603B48D2
:1007B000D0F8880208B9012000E00020364908314D
:1007C00008603748D0F83C0230B130480068C04378
:1007D0002F49C1F8AC0202E000202C4908607047A4
:1007E000F2EE080AB4EEE00AF1EE10FA08DB00209F
:1007F000294908310860091F0860091F0860EEE7F1
:10080000F2EE060AB4EEE00AF1EE10FA10DBF2EEB8
:10081000080AB4EEE00AF1EE10FA09D801201E49E8
:10082000086000201C4908310860091F0860D6E7ED
:10083000F2EE050AB4EEE00AF1EE10FA12DBF2EE87
:10084000060AB4EEE00AF1EE10FA0BD801201249C4
:10085000091D08601149C1F8800200200E490831C5
:100860000860BCE7F2EE050AB4EEE00AF1EE10FA19
:1008700007D80120084908310860091F0860091FCE
:10088000086000BFABE700003C824042AC0240423F
:100890000000404233332341800241420000414284
:1008A000008040421CB50121084600F083FE4FF451
:1008B0000060009001208DF8040000208DF80600F3
:1008C00003208DF8050001208DF8070069460248D5
:1008D000FFF735FE1CBD00000000024000B58DB0E2
:1008E0000121062000F066FE0121080200F082FED0
:1008F0004FF400400B9000208DF8300001208DF85F
:1009000033000BA91B48FFF71AFE20200B90032091
:100910008DF8300000208DF833000BA91648FFF742
:100920000EFE0121080200F075FE00214FF48070D8
:1009300000F070FE002007900A9009904FF480307C
:10094000089007A8FFF718FD002001908DF8080017
:100950008DF809000390059001208DF8180001A979
:100960000648FFF72FFD01210448FFF7F9FC0DB001
:1009700000BD0000000402400008024000200140C9
:1009800010B504460723012221460848FFF744FD1D
:100990000648FFF79DFD00BF02210448FFF708FD50
:1009A0000028F9D00148FFF7FFFC10BD00200140EE
:1009B0001CB50121022000F0FDFD4FF4984000908D
:1009C00001208DF8040000208DF8060003208DF82A
:1009D000050001208DF8070069460548FFF7AFFDC7
:1009E0000120044908600449C1F8AC021CBD0000A4
:1009F00000040240A88240420080404210B500F04E
:100A0000EDFB10BD70B505460C4645F2555000F0A3
:100A1000F9FB284600F0EAFB204600F0EDFB00F071
:100A2000DDFB00F0D3FB70BD1CB50121052000F0FB
:100A3000C1FD0720009001208DF8040000208DF8F2
:100A4000060003208DF8050001208DF80700694697
:100A50000848FFF774FD2020009069460648FFF71C
:100A60006EFD012005490860091F0860091F086024
:100A70001CBD000000080240000002408802414204
:100A800010B5FFF795FF80216B2000F026FD642054
:100A900001F02DFB00216B2000F01FFD032000F072
:100AA000DAFC002000F0CFFC322000F0F9FC00213D
:100AB000382000F012FD00216A2000F00EFD002118
:100AC000232000F00AFD8021372000F006FD75206C
:100AD00000F062FC0446682C0BD101216B2000F071
:100AE000FCFC00216C2000F0F8FC322000F0D8FC67
:100AF00001E0012010BD0020FCE7000070B52DEDE5
:100B0000048B05460C46002D1CDB00213A4801F001
:100B10006CF9284601F0FBFB41EC190BB0EE490AD9
:100B2000F0EE690A01F0D7FAB0EE408AF0EE608A82
:100B300051EC180B01F0BEFB064631462E4801F081
:100B400056F91BE0284601F0E2FB41EC190BB0EE30
:100B5000490AF0EE690A01F0BEFAB0EE408AF0EE02
:100B6000608A51EC180B01F0A5FB0646314622487D
:100B700001F03BF90021204801F039F9002C1CDB81
:100B8000204601F0C4FB41EC190BB0EE490AF0EE2F
:100B9000690A01F0A0FAB0EE408AF0EE608A51ECEA
:100BA000180B01F087FB06463146134801F021F986
:100BB0000021114801F01FF91BE000210E4801F04F
:100BC00018F9204601F0A3FB41EC190BB0EE490ADD
:100BD000F0EE690A01F07FFAB0EE408AF0EE608A2A
:100BE00051EC180B01F066FB06463146024801F055
:100BF00002F9BDEC048B70BD0004014010B5002467
:100C00004FF0FE3024490860EE2081F82000234890
:100C100090ED010A2248D0ED010A70EE200AB0EEF4
:100C2000001A80EE810A10EE100A48609FED1D0A3E
:100C300010EE100A8860194890ED010A1848D0EDAE
:100C4000010A70EE600A9FED181A80EE810A10EE1C
:100C5000100AC8600F20FFF793FE00EE100AB8EEEE
:100C6000400ADFED120A20EE200A9FED111AC0EEB5
:100C7000010A9FED101A80EE810A10EE100A064953
:100C8000086100BF05E00449085D01F037F9601C08
:100C9000C4B2212CF7DB10BD20000020740000201E
:100CA0008C000020000000003333333E33335340C8
:100CB0000000804544DD273E10B588B00446012180
:100CC000084600F077FC0121102000F093FC072279
:100CD0000A212248FFF77BFC072209211F48FFF762
:100CE00076FC4FF4C060069002208DF81C008DF851
:100CF0001D0000208DF81E0001208DF81F0006A9A0
:100D00001648FFF71CFC02940020ADF80C00ADF86B
:100D10000E00ADF81000ADF814000C20ADF8120074
:100D200002A90F4801F062F901210D4801F0F6F81F
:100D3000012240F225510A4801F033F925208DF8AF
:100D4000040000208DF805008DF8060001208DF8C4
:100D5000070001A800F0E6FB08B010BD000002404B
:100D60000010014010B504466FF0040000F0DAFDF9
:100D7000E11704EB5171C1F3C701074A1170104626
:100D8000007800EB4001C1EBC0104FF6FF7101EAA3
:100D9000C0000249088010BD100000201200002091
:100DA00010B52DED088BB0EE409AF0EE609A044637
:100DB0009FED640AB0EE408A9FED620AF0EE408A31
:100DC0009FED600AB0EE40AA9FED5E0AF0EE40AAE9
:100DD0009FED5C0AB0EE40BA022C53D139EEC90A3D
:100DE000B0EE408AF0EE488A574890ED040A38EE9B
:100DF000400AB0EE40AAD0ED040AB0EE001AB0EE00
:100E0000480A01EE600AD0ED050A30EE200AF0EE45
:100E100040AA9FED4E0A28EE800ADFED4D0A00EE53
:100E20008A0ADFED4C0A00EEAA0AB0EE40BAB0F929
:100E30000C0000EE100AB8EEC00A30EE0B0ABDEE50
:100E4000C00A10EE100A00B23F498881084690EDB2
:100E5000040A80ED050A80ED048AB0F90C0040F226
:100E6000B631884203DD0846374988815FE036485D
:100E7000B0F90C003849884259DA4FF64A403249F5
:100E8000888154E0032C52D139EEC90AB0EE408A71
:100E9000F0EE488A314890ED040A38EE400AB0EE90
:100EA00040AAD0ED040AB0EE001AB0EE480A01EEF6
:100EB000600AD0ED050A30EE200AF0EE40AA9FED60
:100EC000230A28EE800ADFED220A00EE8A0ADFED0F
:100ED000210A00EEAA0AB0EE40BAB0F90C0000EE0A
:100EE000100AB8EEC00A30EE0B0ABDEEC00A10EED2
:100EF000100A00B219498881084690ED040A80ED75
:100F0000050A80ED048AB0F90C0040F2B63188423F
:100F100003DD08461149888109E01048B0F90C004A
:100F20000D49884203DA4FF64A400C4988810B4A42
:100F3000B2F90C10044AB2F90C00FFF7DFFDBDEC6A
:100F4000088B10BD000000007400002066E66143BD
:100F5000000025430000DC424AFCFFFF8C0000201B
:100F600010B500200F4908600F48006820F44000C9
:100F70000D4908600846006840F4800008600020C1
:100F80000A49C1F8AC02022001F0CEF8012005495F
:100F90000860022001F0C8F800200449C1F8A80246
:100FA00010BD0000A8824042000402400080404280
:100FB00010B500200F4908600F48006820F4400079
:100FC0000D4908600846006840F480000860012070
:100FD0000A49C1F8AC02022001F0A6F80120054937
:100FE0000860022001F0A0F800200449C1F8A8021E
:100FF00010BD0000A8824042000402400080404230
:1010000070B5054600241648006820F440001449D5
:101010000860084600680860002616E000201149B4
:101020000860022001F080F801200F49C1F8A802F1
:101030006006040E0B487C38006808B1601CC4B21E
:10104000012001F071F8701CC6B2082EE6DB15B95C
:10105000FFF7AEFF01E0FFF783FF204670BD000001
:1010600000040240A88240420080404270B504461D
:101070001548006820F440001349086008460068DD
:1010800040F480000860002010490860002517E047
:10109000E0090E49091D08606006040E022001F0F7
:1010A00043F801200A49C1F8A802022001F03CF8E7
:1010B000002006490860022001F036F8681CC5B21D
:1010C000082DE5DB70BD000000040240A88240420C
:1010D0000080404210B50F48006820F440000D49E0
:1010E00008600846006840F48000086001200A4952
:1010F00008600A49C1F8A802042001F015F8002090
:1011000005490860042001F00FF800200349C1F8E8
:10111000A80210BD00040240AC8240420080404260
:1011200010B50F48006820F440000D4908600846DB
:10113000006840F48000086000200A4908600A49FD
:10114000C1F8AC02042000F0EFFF0120054908605F
:101150000549C1F8AC02042000F0E6FF10BD000014
:1011600000040240A88240420080404210B50024A2
:101170001348006820F440001149086008460068E0
:10118000086001200F49086000F0CEFF01200E49E1
:10119000C1F8A80200F0C8FF07E0601CC4B2FA2C36
:1011A00003DDFFF7BDFF012010BD06488038006851
:1011B0000028F2D10349091F086000BFF4E70000CE
:1011C00000040240AC824042008040424CF6CC40D9
:1011D0000149086070470000003000404AF6AA202C
:1011E0000149086070470000003000400149486034
:1011F00070470000003000400149886070470000DF
:101200000030004001490860704700000030004095
:10121000B5EEC00AF1EE10FA14D19FED1E1A20EEC1
:10122000811AF0EE001A81EE212A1B4880ED022A75
:1012300090ED021AFFEE001A21EE211A174880EDF8
:10124000021A25E0F5EEC00AF1EE10FA06D11348B5
:1012500080ED020A104880ED020A19E09FED0D1A98
:1012600060EE811AB0EE002A81EE821A30EE411A49
:101270000A4880ED021A9FED071A60EE811AB0EE5F
:10128000002A81EE821A31EE001A034880ED021A1C
:10129000704700003333333E8C0000207400002080
:1012A0001CB50121022000F085F90121042000F085
:1012B00091F9C020009002208DF8040000208DF8E4
:1012C000060001208DF8070003208DF8050069460F
:1012D0000B48FFF734F9022206210948FFF777F996
:1012E000022207210648FFF772F900231A4603215C
:1012F000044800F0F3FB0121024800F0D4FB1CBDC0
:1013000000040240000800407CB504466B460622FB
:101310003B21682000F05DF80546BDB99DF801004D
:101320009DF8001040EA012000B220809DF80300E3
:101330009DF8021040EA012000B260809DF805008F
:101340009DF8041040EA012000B2A08028467CBD30
:101350007CB504466B4606224321682000F039F82C
:101360000546BDB99DF801009DF8001040EA012036
:1013700000B220809DF803009DF8021040EA012091
:1013800000B260809DF805009DF8041040EA01203D
:1013900000B2A08028467CBD70B50446FFF79AFED7
:1013A000D020FFF763FEFFF7E1FE2046FFF75EFE69
:1013B000FFF7DCFEFFF78EFED120FFF757FEFFF7A9
:1013C000D5FE0020FFF71CFE0546FFF7A9FE2846C4
:1013D00070BD2DE9F04106460F4614461D46FFF745
:1013E00079FE002141EA4601C8B2FFF73FFEFFF750
:1013F000BDFE20B1FFF794FE0120BDE8F081384624
:10140000FFF734FEFFF7B2FEFFF764FE012101EBA8
:101410004601C8B2FFF72AFEFFF7A8FE0DE0012C37
:1014200004D10020FFF7ECFD287003E00120FFF756
:10143000E7FD2870601EC4B26D1C002CEFD1FFF7D1
:101440006FFE0020D9E710B50446E006010E1C200F
:1014500000F043F810BD10B50446E006010E1B2055
:1014600000F03BF810BD70B504460025BC2C01DB34
:10147000012510E0622C01DB02250CE02A2C01DBA7
:10148000032508E0142C01DB042504E00A2C01DB11
:10149000052500E0062529461A2000F01EF870BD3B
:1014A00070B50446B4F57A7F01DD4FF47A74042CEC
:1014B00000DA04244FF47A7090FBF4F0401EC5B2B9
:1014C0002946192000F009F80546264604EBD67196
:1014D000C1F34F00FFF7C7FF70BD70B505460C465E
:1014E000FFF7F8FDD020FFF7C1FDFFF73FFE18B171
:1014F000FFF716FE012070BD2846FFF7B7FDFFF786
:1015000035FE2046FFF7B2FDFFF730FE18B1FFF7BA
:1015100007FE0120EFE7FFF703FE0020EBE700BF27
:10152000FEE7704770B5002100230F22C4781CB37A
:10153000174C246804F4E064C4F5E064C4F30721A4
:10154000C1F10404E3B20A4144789C40E1B28478DA
:10155000144021430C07210E0E4C05786155047888
:1015600004F01F050124AC4005786D11AD0005F1B4
:10157000E025C5F8004109E0047804F01F050124C6
:10158000AC40054D0678761145F8264070BD000048
:101590000CED00E000E400E080E100E002490143DE
:1015A000024A1160704700000000FA050CED00E0EF
:1015B0007047000029B1064A12680243044B1A60C2
:1015C00004E0034A12688243014B1A60704700002E
:1015D0003038024029B1064A12680243044B1A60AF
:1015E00004E0034A12688243014B1A60704700000E
:1015F0004038024029B1064A12680243044B1A607F
:1016000004E0034A12688243014B1A6070470000ED
:101610004438024029B1064A12680243044B1A605A
:1016200004E0034A12688243014B1A6070470000CD
:1016300024380240F0B500210022002402250026B3
:101640000223324F3F6807F00C0121B1042905D075
:10165000082937D105E02E4F076036E02D4F07608F
:1016600033E02A4F3F1F3F68C7F38056274F3F1F85
:101670003F6807F03F036EB1264FB7FBF3F7DFF883
:101680008CC0ACF1040CDCF800C0CCF3881C07FB68
:101690000CF40CE01E4FB7FBF3F7DFF870C0ACF1B1
:1016A000040CDCF800C0CCF3881C07FB0CF4174FCB
:1016B0003F1F3F68C7F301477F1C7D00B4FBF5F770
:1016C000076002E0124F076000BF00BF0F4F3F6886
:1016D00007F0F0010909104F7A5C0768D7404760AE
:1016E0000A4F3F6807F4E051890A0B4F7A5C47685C
:1016F000D7408760054F3F6807F46041490B064FAC
:101700007A5C4768D740C760F0BD000008380240E7
:101710000024F40000127A00000000201CB5012112
:101720000846FFF747FF01210220FFF753FFC020C3
:10173000009002208DF8040000208DF806000120A2
:101740008DF8070003208DF8050069460B48FEF769
:10175000F6FE022206210948FEF739FF0222072180
:101760000648FEF734FF00231A460321044800F020
:10177000B5F90121024800F096F91CBD00000240B5
:10178000000400401E480068A0F5FE40FF381D49D7
:1017900008601D48006847F6FF71081A1B49086079
:1017A000184890ED000AB8EEC00ADFED190A80EE85
:1017B000201A9FED180A21EE000ADFED170A80EECD
:1017C000201AB1EE410A80ED010A084690ED000AA8
:1017D000B8EEC00ADFED0E0A80EE201A9FED0D0A6A
:1017E00021EE000ADFED0C0A80EE201A80ED011ACE
:1017F00047F6FF700249086003490860704700001F
:101800002404004074000020240800408C000020C4
:10181000004069443488573ECDCCCC3D47F6FF703C
:101820000249086002490860704700002404004033
:1018300024080040704700000CB500200190009083
:101840003448006840F480303249086000BF3148B5
:10185000006800F4003000900198401C019000984E
:1018600018B90198B0F5A04FF1D12A48006800F4EA
:10187000003010B10120009001E00020009000989D
:10188000012846D123484030006840F0805021496B
:10189000403108602048006840F440401E4908601C
:1018A0001C48083000681B49083108600846006879
:1018B00040F4004008600846006840F4A05008600A
:1018C0001648091F0860081F006840F08070091F53
:1018D000086000BF0F48006800F000700028F9D0D1
:1018E00040F205700E4908600A480830006820F090
:1018F00003000849083108600846006840F002000B
:10190000086000BF03480830006800F00C00082899
:10191000F8D10CBD00380240007000400854400768
:10192000003C0240042808D14FF0E021096941F051
:1019300004014FF0E022116107E04FF0E021096956
:1019400021F004014FF0E022116170477047000060
:1019500010B51548006840F470001349086013483A
:10196000006840F001001149086000200F4908316B
:1019700008600E4800680E4908400C4908600D4890
:10198000091D0860081F006820F48020091F0860F6
:10199000002006490C310860FFF74EFF4FF0006051
:1019A00001498039086010BD88ED00E00038024030
:1019B000FFFFF6FE1030002410B52DED028B012143
:1019C000214800F0ACF8012836D1204800682049B1
:1019D000884203D300201D49086004E01B480068CA
:1019E000401C1A490860194800680A21B0FBF1F24E
:1019F00001FB1200C0B90F20FEF7C2FF00EE100A73
:101A0000B8EE400ADFED130A20EE200A9FED121A0D
:101A1000C0EE010A9FED110A80EE801AB0EE418AF5
:101A2000B0EE480AFEF79EFE0D480068C0430D491F
:101A3000C1F89402FFF7A6FE0121034800F030F838
:101A4000BDEC028B10BD000000140040140000200B
:101A5000285C8F02333353400000804544DD273E2D
:101A6000940240420000404221B1028842F08002CC
:101A7000028004E002884FF67F731A4002807047AC
:101A80000A884B881A438B881A43CB881A430B89E0
:101A90001A434B891A438B891A43A0F84420704794
:101AA000CA430282704721B1028842F001020280DB
:101AB00004E002884FF6FE731A400280704731B18D
:101AC000B0F8442042F40042A0F8442005E0B0F809
:101AD0004420C2F30E02A0F844207047F0B50C4633
:101AE00015461E460021002200230189028B038C2B
:101AF0004FF6F877394021434FF6FC473A4040F221
:101B000001173A434FF6DD773B404FF6FF7707EA80
:101B100006172F433B43018102830384F0BD30B598
:101B20000246002000230024158A05EA0103958956
:101B300005EA010413B10CB1012000E0002030BD22
:101B40001AB183890B43838102E083898B438381AC
:101B50007047000070B5002400220023058C4FF66A
:101B6000FE7635400584028C8388048B4FF68F7592
:101B70002C40B51E2C400D882C43751E2A408D89A3
:101B80002A434D882A43104DA84202D00F4DA84247
:101B900013D14FF6F7752A40CD892A434FF6FB75CE
:101BA0002A408D882A434FF6FF652B404FF6FF559C
:101BB0002B400D8A2B434D8A2B43838004838D68F1
:101BC0004563028470BD0000000001400004014034
:101BD0000A460021018B4FF6F77319401143018328
:101BE0007047000070B5002400220023058C4FF6DA
:101BF000EF7635400584028C8388048B48F6FF75A8
:101C00002C404FF6FF452C400D884FF6FF7606EA34
:101C100005252C434FF6DF752A408D8906EA051508
:101C20002A434D8806EA05152A43154DA84202D0DD
:101C3000144DA8421DD14FF67F752A40CD894FF62D
:101C4000FF7606EA05152A434FF6BF752A408D88B0
:101C500006EA05152A434FF6FF352B404FF2FF7574
:101C60002B400D8A06EA85052B434D8A06EA850539
:101C70002B43838004838D688563028470BD0000DC
:101C800000000140000401400A460021018B4FF290
:101C9000FF7319404FF6FF7303EA022319430183D0
:101CA0007047000070B5002400220023058C4FF619
:101CB000FF6635400584028C8388848B4FF68F75D0
:101CC0002C404FF6FC752C400D882C434FF6FF55E9
:101CD0002A408D894FF6FF7606EA05252A434D886E
:101CE00006EA05252A43154DA84202D0144DA84204
:101CF0001DD14FF2FF752A40CD894FF6FF7606EAD7
:101D000005252A434FF6FF352A408D8806EA05252A
:101D10002A434EF6FF752B404DF6FF752B400D8A7A
:101D200006EA05152B434D8A06EA05152B438380E9
:101D300084838D68C563028470BD0000000001408B
:101D4000000401400A460021818B4FF6F7731940C9
:101D5000114381837047000070B5002200230024E6
:101D6000058C4EF6FF7635400584038C8488828B83
:101D700048F6FF752A404FF6FF452A400D884FF67A
:101D8000FF7606EA05252A434DF6FF752B408D891F
:101D900006EA05352B434D8806EA05352B430A4DE7
:101DA000A84202D0094DA84208D14BF6FF752C403D
:101DB0000D8A4FF6FF7606EA85152C4384808283D0
:101DC0008D680564038470BD00000140000401407B
:101DD0000A460021818B4FF2FF7319404FF6FF73C3
:101DE00003EA02231943818370474163704781638B
:101DF0007047C16370470164704700000022028889
:101E0000184B98420ED0184B98420BD0B0F1804F2F
:101E100008D0164B984205D0154B984202D0154B6E
:101E2000984204D14FF68F731A404B881A43124BD5
:101E3000984207D0114B984204D04FF6FF431A4006
:101E40000B891A4302804B68C3620B880385054BDC
:101E5000984202D0044B984201D18B7A0386012329
:101E600083827047000001400004014000040040EC
:101E700000080040000C004000100040001400402A
:101E800010B540F225511A4800F061F870B31848B7
:101E900000F016F91749184A127888540846007855
:101EA000FE2805D114480078401C1349087002E050
:101EB00000201149087010480078212816D10D48DB
:101EC0000068B0F1FE3F0ED10A4890F82000EE28DD
:101ED00009D10848C06800EE900A0648406800EE44
:101EE000100AFFF795F900200349087010BD0000A3
:101EF00000100140410000201C00002010B50446E5
:101F000000BF4021044800F015F80028F9D0214610
:101F1000014800F0DAF810BD0010014021B18289BB
:101F200042F40052828104E082894DF6FF731A4028
:101F30008281704702460020B1F5007F00D100BFCA
:101F400013880B400BB1012000E00020704770B5F2
:101F50000246002400230025002040F66A16B14204
:101F600000D100BFC1F3421501F01F03012606FA9C
:101F700003F3012D02D19689334006E0022D02D1F0
:101F8000168A334001E0968A33400C12012606FA85
:101F900004F41688344013B10CB1012000E0002095
:101FA00070BDF0B50346002400260025002040F651
:101FB0006A17B94200D100BF1846C1F3421401F0BC
:101FC0001F06012707FA06F5012C01D10C3004E0A9
:101FD000022C01D1103000E014301AB107682F43F1
:101FE000076002E00768AF430760F0BD2DE9FF47D7
:101FF00005460E460024A14600BFA046B08900B1A8
:1020000000BF2C8A24F44054F08804432C82AC890D
:1020100041F20C608443B0883189084371890843D8
:102020000443AC81AC8A24F44074B0890443AC828C
:102030006846FFF7FFFA2048854202D01F488542D4
:1020400002D1DDF80C9001E0DDF80890A88900F4D9
:10205000004040B109EBC90000EB091031684900AC
:10206000B0FBF1F707E009EBC90000EB091031689C
:102070008900B0FBF1F76420B7FBF0F00401200900
:10208000642101FB1078A88900F4004040B132209F
:1020900000EBC800B0FBF1F000F00700044308E0DB
:1020A000322000EB08106421B0FBF1F000F00F00CB
:1020B00004432C81BDE8FF8700100140001401405B
:1020C00001468888C0F308007047C1F30802828087
:1020D000704700BFFEE72DED020B019820F0004095
:1020E00001909DED000B02B0704700BF704770B5C6
:1020F00004464FF4077094FBF0F0C6B24FF407703B
:1021000094FBF0F100FB114085B205E04FF407703D
:1021100000F030F8701EC6B2002EF7D115B1284677
:1021200000F028F870BD00000146114A12784A43B9
:102130004FF0E0235A6100229A611A46126942F078
:1021400001021A6100BF4FF0E022106900F00102A5
:102150001AB100F48032002AF5D04FF0E022126963
:1021600022F001024FF0E0231A6100229A617047C9
:10217000100000200146114A12884A434FF0E02324
:102180005A6100229A611A46126942F001021A61EC
:1021900000BF4FF0E022106900F001021AB100F414
:1021A0008032002AF5D04FF0E022126922F00102BD
:1021B0004FF0E0231A6100229A617047120000205C
:1021C0004FF4A060FFF7EAF9A820FEF7CBFD42F23A
:1021D000D00140F2E730FEF781F94FF4E130FEF72D
:1021E0006BFDFEF721FCFEF75DFBFFF797FAFFF7AB
:1021F00057F8FEF773FBFEF7DBFBFEF741FC0A2105
:102200004FF47A70FEF708FAC8210420FEF7FAFBB3
:1022100018212248FEF74AF818212148FEF746F80F
:1022200021212048FEF720F821211F48FEF71CF845
:10223000FFF7F4FA01201D490860C820FFF757FF97
:1022400000201B49C1F8AC0226E02E20FFF74FFF0B
:10225000134890ED021AF0EE410A90ED011AB0EE2B
:10226000410A0320FEF79CFD0C4890ED021AF0EEA7
:10227000410A90ED011AB0EE410A0220FEF790FDEE
:1022800008481430FFF740F806481A30FFF760F8A6
:10229000FEF7B4FCFEF7B2FBD7E7000074000020A5
:1022A0008C0000202000002041000020AC024042B1
:1022B000000040424FEA1153A3F58063D3F11E039F
:1022C000A8BFD3F1200C08DB4FF0004242EAC12244
:1022D00052EA505232FA03F0704709420BD4102BE5
:1022E000C4BF0020704703F5787CBCF1FF3F05D0E8
:1022F0004FF0FF3070474FF00000704770B500F0AE
:102300001DF800BF4992248000207047F0E710F0CC
:10231000004248BF4042B0FA80F310FA03F10AD0FD
:10232000C3F11D0303F580634FEA415002EB0352F2
:1023300002EBD12170474FF0000070470EF1020E02
:102340002EF0030E5EF8046B364205D4012A43EBEF
:10235000030515F5001F12D8012841EB010C1CF5EF
:10236000001F0CD80ED14FEAD17C15F5001F0CEBE5
:102370004C0C0CF1020C08BF4CEBD37C04E04FF08A
:10238000080C01E04FEAD37C0CEB4C0526FA05F66D
:1023900006F00706B6F1040C06D20EEB860CBDE87B
:1023A00070404CF0010C6047DFE80CF0090B0202B2
:1023B0004FF000414FF00000A1F5002170BD19461B
:1023C0001046012851EB010418BFD4F5001484BF56
:1023D000002001F0004170BD4FF04070E1EE100AA6
:1023E00070470000042400080000002020000000C6
:1023F000C40100082424000820000020E806000092
:10240000E0010008000000000102030401020304CF
:10241000060708090000000000000000000000009E
:0424200000000000B8
:040000050800018965
:00000001FF
